S014000054696D6553796E634D6265642E737265636C
S113000000800020A52C0000A12C0000A12C0000E1
S113001000000000000000000000000000000000DC
S1130020000000000000000000000000F50E0000C9
S11300300000000000000000610F0000A50F000098
S1130040A12C0000A12C0000A12C000041160000EE
S1130050652D0000A12C0000A12C00000000000070
S1130060A12C0000112F0000212F0000312F0000CF
S1130070412F00000000000000000000A12C00003F
S1130080A12C0000A12C0000E94D0000F54D00005A
S1130090014E00000000000000000000000000000D
S11300A0000000000000000000000000A12C00007F
S11300B00000000010B5064C2378002B07D1054B37
S11300C0002B02D0044800E000BF0123237010BDC0
S11300D074010020000000000CE7000008B5084B84
S11300E0002B03D00748084900E000BF0748036815
S11300F0002B00D108BD064B002BFBD09847F9E735
S1130100000000000CE70000780100200CE700006C
S11301100000000010B5041C036C002B08D1036818
S1130120002B26D14068154B98470023636020E0DC
S1130130002A0ED180681A1C114B9847A368226CC0
S113014094466344A3606268934212D32368A36015
S11301500FE0C0681A1C0A4B9847236C5B42E268A4
S1130160D218E26021688A4203D2626894466344EA
S1130170E360A36B0133A36310BDC0466D0E0000A2
S11301808F89000038B50468002C0CD0026CC36859
S11301909B18C3604568AB4200D3C4600B1CC168A4
S11301A0181C014B984738BD8F890000F8B5041C12
S11301B0214B9847A36C002B16DD636A002B04D1F6
S11301C012E0636A002B04D10EE0251C24351B4F7A
S11301D01B4E281CB847002800D0B047A36C013B35
S11301E0A364A36C002BECDC01235B42A364154BDA
S11301F09847114B9847636C002B16DD2369002B3D
S113020004D112E02369002B04D10EE0251C103523
S11302100A4F0B4E281CB847002800D0B047636C27
S1130220013B6364636C002BECDC01235B4263647D
S1130230044B9847F8BDC046350F0000CD0C0000B4
S1130240D90D00004D0F000038B5002801D172B659
S1130250FEE70D1C041C154B98472268216CE36BC8
S11302604B43D01860600020A063A2605B1AD318CF
S1130270E36001235B426364A364002D0BD1236913
S1130280002B0FD0201C1030094B9847012809D1AE
S1130290084B984706E0201C1030074DA847201C47
S11302A02430A847054B9847012038BD350F00007E
S11302B0CD0C00001D0F0000110600004D0F0000C2
S11302C070B5002813D00E1C051C4C200D4B98470C
S11302D0041E0CD0301C684301300A4B9847206040
S11302E0002806D1201C084B984700E0FEE772B6B0
S11302F0FCE7E5632664201C0121044B9847201C7D
S113030070BDC04629100000911000004902000091
S1130310F0B5574680B486B00392002801D172B676
S1130320FEE70027002905D1026C002A01D072B62D
S1130330FEE7002702930191041C334DA847A36BE9
S1130340E26B934213D2201C0199029A2F4B9847D7
S1130350636A002B07D0201C24302D4B98470128BA
S113036001D12C4B98472C4B9847012048E0039B24
S1130370002B03D1284B9847002041E0002F03D1E4
S113038004A8264B98470137234B9847244B98479A
S11303901D4B9847636C013301D100236364A36C44
S11303A0013301D10023A3641B4B984704A803A97C
S11303B01C4B984700281DD1134B9847A36B9A46B2
S11303C0E66B154B9847B2450ED1201C10300399AB
S11303D0154B9847201C154B9847154B98470028F8
S11303E0ACD10C4B9847A9E7201C104B9847104BF5
S11303F09847A3E7201C0D4B98470D4B98470020C6
S113040006B004BC9246F0BD350F00001501000093
S1130410CD0C00001D0F00004D0F0000490D000021
S113042055090000690D00008D0C0000AD010000AD
S1130430A10A000070B5002801D172B6FEE70029B8
S113044004D1046C002C01D072B6FEE772B6846B42
S11304500025C66BB4421CD2161C041C1A1C0E4B7D
S11304609847A36C01330ED1636A0135002B10D079
S1130470201C2430094B984700280AD0002E07D0AE
S11304800123336005E0A36C0133A364012500E07C
S1130490012562B6281C70BD15010000CD0C0000BA
S11304A0F0B54F4680B484B00192002801D172B6F1
S11304B0FEE70027002905D1026C002A01D072B69C
S11304C0FEE700271D1C0091041C444EB047A36B9B
S11304D0002B2BD0E768201C0099414B9847002D36
S11304E014D1A36B013BA3632368002B02D13D4BC2
S11304F0984760602369002B14D0201C10303A4BBD
S1130500984701280ED1394B98470BE0E760636A9E
S1130510002B07D0201C2430334B9847002801D0EF
S1130520324B9847324B9847012052E0019B002BF5
S113053003D12F4B984700204BE0002F03D102A892
S11305402C4B984701372A4B98472B4B9847234B02
S11305509847636C013301D100236364A36C0133B6
S113056001D10023A364224B984702A801A9234B7D
S11305709847002827D1194B9847A36B99461C4BE1
S113058098474B46002B18D12368002B06D1134BF8
S1130590984760681A4B9847154B9847201C24309D
S11305A00199184B9847201C174B9847174B9847AD
S11305B000288BD10D4B984788E7201C124B984795
S11305C0124B984782E7201C0F4B98470F4B9847D4
S11305D0002004B004BC9146F0BDC046350F0000B5
S11305E085010000E50D0000CD0C00001D0F00008A
S11305F04D0F0000490D000055090000690D000071
S1130600F10D00008D0C0000AD010000A10A0000F6
S1130610031C08334360012252428260C3600361B9
S1130620002303607047C046002303617047C0463F
S113063043685A684A6042688A605A68916059609F
S113064041600861036801330360704710B50C68AA
S1130650631C01D103690AE0031C0833C2681268F1
S1130660944204D35B685A6812689442FAD25A6876
S11306704A6091608B6059600861036801330360CC
S113068010BDC046436882689A60836842685A60B5
S113069003695A68824201D182685A600022026169
S11306A01A68013A1A6018687047C04610B5014CC0
S11306B0A047FDE71D0F000010B5041E0E4B1B687C
S11306C058600E4B1B689C4207D20D4B18680A4BAE
S11306D0196804310B4B98470CE00B4B1868064B18
S11306E019680431074B9847084B1B689C4201D298
S11306F0064B1C6010BDC04630020020480200209A
S11307004C0200204D06000094010020B40000209B
S1130710F0B54F464646C0B485B00C9C002801D1C4
S113072072B6FEE7052C01D972B6FEE70393161CD8
S11307300F1C02904020594B9847051E00D1A5E09C
S11307400E9B002B00D09DE0B000544B98472863CB
S1130750002803D1281C524B984797E0B200A521EA
S1130760504B9847504BF3189B002A6B94466344B4
S1130770072293439846281C3430391C01324B4BD2
S1130780984700223B23EA54271E052F00D905274A
S1130790EF62EF632B1D0193181C454EB047281CD4
S11307A01830B0472D610623DB1BAB616D624046F8
S11307B00299039A3F4B98472860430701D072B6C9
S11307C0FEE70D9B002B00D01D603B4B98473B4A36
S11307D01368013313603A4B1B68002B1ED1384B4E
S11307E01D601368012B24D1364E77339946B144EA
S11307F0354F301CB84714364E45FAD1334B994621
S1130800181C314EB047324F381CB0473148B047FE
S1130810314B4A461A60314B1F600AE0304B1B686B
S1130820002B06D1264B1B68DB6A9C4201D3244B68
S11308301D60EB6A2B4A1268934201D9294A13605E
S113084029490A6801320A60284A1268934201D988
S1130850264A13609800C3189B001A48C0180199CF
S1130860234B9847234B98471D4B1B680120002BB3
S11308700ED0134B1B68DB6A9C4209D91E4B984768
S1130880012005E00E9B0363181C67E7012040422A
S113089005B00CBC90469946F0BDC0462910000036
S11308A091100000A1890000FFFFFF3F5FA100003D
S11308B029060000DD0E0000350F00007002002044
S11308C030020020B401002011060000580200206C
S11308D0A001002034020020940100204C020020DA
S11308E098010020740200205402002050020020CD
S11308F0310600004D0F00001D0F000010B584B03C
S1130900002300930193029303930C480C4996220D
S113091052000C4CA047012809D172B601220A4B9F
S11309201A600022094B1A60094B984703E000281B
S113093001D172B6FEE704B010BDC046AD0600009A
S1130940FCD5000011070000980100204802002097
S1130950ED0F0000024A1368013313607047C0466C
S11309602C02002010B5044B9847044B1C68044B20
S11309709847201C10BDC046350F000048020020D7
S11309804D0F0000F8B53B4B1B68002B6DD13A4B63
S11309901A6801321A601B68002B20D1374B1B6880
S11309A01B68002B01D072B6FEE7344B1968344A39
S11309B010681860116033490A6801320A601B68C4
S11309C01B68002B04D1012252422F4B1A6006E00F
S11309D02A4B1B68DB68DB685A682B4B1A60264B72
S11309E01A68294B1B689A4243D3244B1B681B6823
S11309F0002B0BD0214B1B68DB68DD686B681E4A3B
S1130A001268934210D8214F214E10E00122524225
S1130A101D4B1A602DE0194B1B68DB68DD686B68A1
S1130A20154A1268934202D9174A136021E02C1D1B
S1130A30201CB847AB6A002B03D0281C1830134B7A
S1130A409847EB6A3268934201D9114A13609800BF
S1130A50C3189B000F48C018211C0F4B9847074B25
S1130A601B681B68002BD6D1D0E70C4A13680133EE
S1130A701360F8BD2C0200204802002094010020DD
S1130A804C0200209C010020B400002085060000D8
S1130A9050020020B4010020310600009001002023
S1130AA0F8B52F4B1B68002B01D172B6FEE72D4B16
S1130AB098472B4B1A68013A1A601B680024002BD4
S1130AC049D1294B1B680026002B22D143E0274B38
S1130AD0DB68DF68381C1830254B98473D1D281CFF
S1130AE0234B9847FB6A234A1268934201D9214A4F
S1130AF013609800C3189B001F48C018291C1F4B83
S1130B0098471F4B1B68FA6ADB6A9A4202D3012694
S1130B1000E0164C2368002BD9D11A4B1B68002B1C
S1130B200CD0184B1B68002B08D0174D154CA84748
S1130B302368013B23602368002BF8D1012E04D0E5
S1130B40124B1B680024012B05D100220F4B1A60A5
S1130B500F4B984701240F4B9847201CF8BDC04603
S1130B602C020020350F0000700200203402002007
S1130B708506000050020020B40100203106000068
S1130B803002002090010020850900006C02002042
S1130B901D0F00004D0F000010B5041E10D00A4BAD
S1130BA098470A4B1B68E418094B18680430094B32
S1130BB09847201C084B9847084B9847002801D1B8
S1130BC0074B984710BDC046550900004802002055
S1130BD03002002085060000B9060000A10A0000CA
S1130BE01D0F000010B5244B1B68002B10D1234BA4
S1130BF01B689A00D3189B00214A9B58002B1AD1DA
S1130C001E4B1B68002B0AD01C4A1D4C101C08E00C
S1130C1001221C4B1A602DE00368002B01D172B62F
S1130C20FEE71368013B136013689900CB189B001F
S1130C301B59002BF0D0114B1B68114C9A00D11892
S1130C4089006118486840684860D21892000832E8
S1130C50A218904205D141689A00D2189200A218B5
S1130C6051609A00D3189B00054AD3185B68DA6870
S1130C70054B1A6010BDC0462C0200205002002013
S1130C80B40100206C0200203002002038B5002896
S1130C9001D172B6FEE70C1C074D29681831074BC9
S1130CA0984728680430064B9847064B1868201864
S1130CB0054B984738BDC046300200204D06000061
S1130CC08506000048020020B906000038B5C36854
S1130CD0DD68002D01D172B6FEE72C1C1834201CEF
S1130CE0124B9847124B1B68002B13D12C1D201C50
S1130CF00E4B9847EB6A0F4A1268934201D90D4A8A
S1130D0013609800C3189B000B48C018211C0B4BA0
S1130D10984703E00A48211C084B9847094B1B6875
S1130D20EA6ADB6A00209A42404138BD8506000029
S1130D302C02002050020020B401002031060000E3
S1130D403402002030020020002801D172B6FEE7F0
S1130D50034B1B680360034B1B6843607047C0462A
S1130D609C0100204802002070B5002801D172B611
S1130D70FEE7002901D172B6FEE70D1C041C114BDD
S1130D809847114B1B6822689A4205D00F4B1B6889
S1130D90012662689A4210D90C4B196860682B6866
S1130DA0091A0126994208D2084A1268121A9B1A93
S1130DB02B60201C064B98470026064B9847301C96
S1130DC070BDC046350F00009C0100204802002081
S1130DD0490D00004D0F00000122014B1A607047BD
S1130DE06C020020014B18687047C0463002002096
S1130DF038B500282FD0C36A174A1268D26A9342C2
S1130E0029D2154A1268D16A0622521A82619A00BE
S1130E10D3189B00114AD31842699A4217D1051C72
S1130E20041D201C0E4B98470B4B1B68DB6AEB62BE
S1130E300C4A1268934201D90A4A13609800C018F8
S1130E4083000648C018211C074B984703E0024B57
S1130E501B68DB6AC36238BD30020020B401002085
S1130E6085060000500200203106000038B5002835
S1130E701BD0C36AC26B934217D0041C051D281CE7
S1130E800A4B9847E36BE3620622D21AA261084A2E
S1130E901268934201D9064A13609800C01883006F
S1130EA00448C018291C044B984738BD8506000027
S1130EB050020020B401002031060000064A1368E5
S1130EC01868203080F30988022080F314883FBC1E
S1130ED0AE4662B600BDC0463002002010B5031F06
S1130EE0802464041C60043B1960183B1A60403879
S1130EF010BDC046084B196808681030F0C8A046F9
S1130F00A946B246BB4680F309882038F0C871462A
S1130F100D2001430847C0463002002080225205BC
S1130F20034B1A60BFF34F8FBFF36F8F7047C046F8
S1130F3004ED00E072B6044A136801331360BFF392
S1130F404F8FBFF36F8F7047B8000020034A1368B8
S1130F50013B1360002B00D162B67047B80000203B
S1130F60EFF309800E4B1A6820381060F0C0444635
S1130F704D4656465F46F0C008B572B6FFF732FEDE
S1130F8062B60CBC116808681030F0C8A046A946C7
S1130F90B246BB4680F309882038F0C81847C046DB
S1130FA03002002008B572B6014B984762B608BDFE
S1130FB08509000008B50022074B1A600020074B82
S1130FC09847FA218900064B98470138054B186069
S1130FD00722054B1A6008BD18E000E00137000045
S1130FE0D151000014E000E010E000E008B50A4B25
S1130FF01A68FF2109040A431A601A68FF210906C6
S11310000A431A60054B98470022054B1A60054BAA
S11310109847002008BDC04620ED00E0B50F000051
S1131020B8000020BD0E000038B5041C430702D0F0
S113103007239C430834104B9847104B1B68002B24
S113104005D107220E4B083393430C4A13600D4B12
S11310501B68E4180C4A944207D8A34207D2074AF3
S11310601568ED18074B1C6002E0002500E0002520
S1131070064B9847281C38BD55090000143D002034
S11310807C020020780200208F3A0000A10A0000B0
S1131090002801D072B6FEE77047C04682B084B023
S11310A00190029103920593019A059B01209A42B3
S11310B009D8019A059B00209A4204D30298069B02
S11310C083428041404204B002B0704784B0019131
S11310D00292039300230360436001330372059972
S11310E0019A049BD21A0260029B5B1A0BD5026818
S11310F0002A09D00268013A0260FA22D201944619
S11311006344436000E0436004B0704770B58EB040
S1131110041C05A8059106920793002323606360CD
S113112001332372037A12AA127ADBB2934220D0DB
S1131130037A002B0DD0012212AB1A726B4612AA4D
S113114023CA23C3201C0599069A079B2E4DA84742
S113115056E005AB01221A726A4612A961C961C23E
S1131160201C0599069A079B274DA8470023237244
S113117046E005AB1B7A002B2BD008AA05AB23CB8A
S113118023C20BAB12AA23CA23C3089A0B9B9A420D
S113119007D8089A0B9B9A420ED3099A0C9B9A4241
S11311A00AD96B4612AA23CA23C3201C0599069A9E
S11311B0079B164DA84723E005AB6A4623CB23C201
S11311C0201C1299139A149B104DA84700232372D4
S11311D016E0012212AB1A7205AB1A726A4612A902
S11311E061C961C2201C0599069A079BFFF78EFF0F
S11311F0237A002B02D00023237201E001232372FF
S1131200201C0EB070BDC04611120000CD100000AD
S1131210F0B5474680B49AB0041C05A8059106921F
S1131220079300232360636001332372037A002B46
S113123013D020AB1B7A002B14D10EE020AB1B7A09
S1131240002B46D137E020AB1B7A002B46D152E06D
S113125020AB1B7A002B53D081E005AB1B7A002B0B
S1131260ECD136E008AA05AB111C61CB61C10BAB14
S1131270191C20A8E0C8E0C114AD002114911591F7
S1131280013129720999089A0B98821814920C9EBC
S11312907618149F301CFA21C9013A4B9847C71994
S11312A01497301CFA21C901374B98476960231CF5
S11312B007CD07C353E0012220AB1A726B4620AA64
S11312C023CA23C3201C0599069A079B2F4DA847C0
S11312D045E005AB1B7A002B0DD1B4E705AB012229
S11312E01A726A4623CB23C2201C2099219A229B7E
S11312F0264DA84733E005AB1B7A002B2FD1A7E777
S113130005AB0121197220AA11720EAA101CE0CBA0
S1131310E0C011AB9C46181C20ADC8CDC8C017ADA9
S113132000271797189729720F990E9A1198821807
S1131330179263465E687618179B9846301CFA210C
S1131340C901104B984740441790301CFA21C90139
S11313500D4B98476960231C07CD07C3277260684B
S11313602568FA21C901074B98474519256060682B
S1131370FA21C901044B98476160201C1AB004BCCF
S11313809046F0BDD1510000DD5200000D11000067
S113139070B5041C164A138802218B431380937A78
S11313A0DB09FCD1124B1E69198802220A431A80F8
S11313B0104B1A6822605B68636001230E4A137045
S11313C0BFF35F8F62B6237263689B1963606068C2
S11313D02568FA21C901094B9847451925606068B9
S11313E0FA21C901064B98476160301C70BDC046A4
S11313F000140040BC000020D0000020D1510000A7
S1131400DD52000070B584B001900291039272B66F
S1131410BFF35F8F00221A4B1A70019B194C236093
S113142002989621184B9847962358436060174AB0
S1131430138802218B431380937ADB09FCD1029831
S1131440134E9621B047114B1961198802220A43A1
S11314501A8001220A4B1A70BFF35F8F62B6094CDF
S113146060682568FA21C901074B9847451925602A
S11314706068FA21C901B047616004B070BDC0461C
S1131480D0000020BC000020D15100000014004016
S1131490DD520000F0B58DB072B6BFF35F8F00224D
S11314A0574B1A70574B1A78574B1A70574B5A6848
S11314B096325A605A68564B9A4203D80022514BCE
S11314C01A7002E001224F4B1A704E4B1B78DBB2AC
S11314D04D4A12789A4217D04A4B1C78E4B24D4BCD
S11314E01B785BB2013304D14B484C4928224C4B46
S11314F09847002C04D0474B1A695B68136003E0DB
S1131500444BDA685B681360404C60682568FA21D4
S1131510C901444B9847451925606068FA21C901FF
S1131520414B98476160414B1B68002B60D0404B96
S11315301B68002B3CD13F4B1A683D4B1A603B4C57
S11315402068C317C0185840FA21C901354B984781
S113155009902068C317C0185840FA21C901324BBA
S113156098470A912368002B03DA002209AB1A7208
S113157002E0012209AB1A72244E04AC09AD6B4699
S11315802A1C83CA83C3201C31687268B3682A4F3B
S1131590B847231C07CB07C6284E6B4607CD07C3A5
S11315A0201C31687268B368B8470ECC0EC603E0DD
S11315B01F4A1368013B1360204C60682568194F6B
S11315C0FA21C901B847451925606068164EFA2109
S11315D0C901B04761600D4C60682568FA21C901F2
S11315E0B847451925606068FA21C901B0476160B0
S11315F00122034B1A70BFF35F8F62B60DB0F0BDCA
S1131600D0000020203D0020183D0020BC00002018
S11316107F3E0000283D002004D600001CD60000B8
S113162011410000D1510000DD520000443D002072
S1131630243D00201C3D002011120000883E0020A3
S113164008B5064B197A01220A431A721A7A8021C4
S113165049420A431A72024B984708BD00140040DD
S1131660951400001E4B1F4A5A60812252009A6052
S11316701D4A5A801D4B19881D4A0A401A801A882F
S11316800C218A431A801A880B398A431A801988D4
S113169080220A431A80D979802040420143D971BB
S11316A0D97901221143D971197A0A431A721A7A23
S11316B002431A7200221A610E4A12689A6119884A
S11316C002220A431A800C4AC021890053581B0283
S11316D01B0AC020000603435350082313607047BD
S11316E0000C004002040100044200000014004009
S11316F0FFF0FFFFC800002000E100E008B5074844
S1131700002303704360037243728372C3600361F6
S1131710436183611321024B984708BD283D002093
S11317203541000070B5044E044D054C301CA847EB
S11317300448A047FAE7C04668D6000081280000A4
S1131740990B0000A08601007047C04630B585B0F3
S113175028482949294B98479423294AD0580028D6
S113176004D0002100220023264CA047264A322020
S1131770115CC9B2204B1B88DCB25454115C01319A
S1131780C9B21154125CD2B2312A03D900203222D8
S11317901D498854552B16D1194C01222F33E2547C
S11317A0236801AD019363680293237ADBB22B7241
S11317B0281C164B9847019B23606B6863602B7A47
S11317C0DBB2237214E084220D498A5C002A0FD014
S11317D0002084228854092B0AD80A1C0C6858005B
S11317E0C11889008C505168C3189B00D3185960E4
S11317F005B030BD803D0020483D0020B12F0000E1
S11318005C3F0020350400004C3D00209113000093
S1131810044A3323D35C3221505C181A431E984186
S1131820C0B270474C3D0020034A3223D35CDBB284
S1131830332153547047C0464C3D002008B5031C67
S11318408AB20248191C024B984708BD803D00200B
S11318507534000008B50D4B98470023002813D0B9
S11318600B4B33215A5CD2B2985CC0B25A5C013241
S1131870D2B25A545A5CD2B2031C312A04D9002180
S11318803323034AD154031C181C08BD111800004B
S11318904C3D002070B590B0334900230022332022
S11318A00B5401380B548021C90500910193FF2189
S11318B0684601818372C372012124206C4621543D
S11318C00130215425316354013163540A930531A5
S11318D063540131635405932382E376227622779D
S11318E062761323A37662779623DB010893802321
S11318F05B0303931D4B0C931D4B0D9301235B4220
S11319000E930F931B4E1C4D1C4C301C291C6A4615
S1131910A0470028F9D1174D2C68201C184B984774
S11319201F2318401E3B8340181C164B18602A685E
S1131930D369002BFCD122680233134323600D4C7E
S1131940201C11490022114DA847201C10490122D6
S1131950A8473122A15C03230B43A354201C0D4947
S11319600D4B984710B070BD4C3D00200300100093
S113197003001100803D0020001400426531000086
S1131980ED2E000000E100E049170000992F00004F
S11319904D170000483D0020B12F000038B572B645
S11319A0BFF35F8F174D00232B70174B98471748D1
S11319B0174CA047174B98471748A047174B984711
S11319C01748A047174B98471748A047174B984705
S11319D001232B70BFF35F8F62B61548A0471548EB
S11319E00121154B9847154D281C1549154CA04746
S11319F0281C1549A047281C1449A047144B984794
S1131A00FEE7C046D00000201528000078D600006C
S1131A10D19D00006516000090D60000591B0000FF
S1131A209CD6000095180000ACD60000551A0000A2
S1131A30BCD6000008D70000D99C00002442002036
S1131A401CD70000E94000002CD700004CD7000050
S1131A50FD08000070B584B01348144B98479626CF
S1131A607600012300930024019402940394104807
S1131A701049321C0023104DA847032300930194FE
S1131A80029403940D480E49962292000023A8471D
S1131A90022300930194029403940A480A49321CD5
S1131AA00023A84704B070BD9CD70000D19D00005E
S1131AB019280000B0D7000011070000BD2600005F
S1131AC0B4D7000025170000BCD7000030B58FB094
S1131AD072B6BFF35F8F0023194A137008AD0893E1
S1131AE0099301222A720BAC0B930C932272281CCB
S1131AF0144B9847089B0B936B6863606268124BA6
S1131B009A4202D90B9B01330B9300230C9304AC30
S1131B1008AB6A4623CB23C2201C0B990C9A0D9B5D
S1131B200A4DA8470A4B983307CC07C3094B98477B
S1131B300122034B1A70BFF35F8F62B60FB030BD42
S1131B40D0000020911300007F3E00000D11000022
S1131B505C3F00206122000030B585B001AC201C40
S1131B600C4B98471C230193002565601B3BE372D3
S1131B70A5720820211C084B984708480821002218
S1131B80074B984708200021064B9847064B1D70C9
S1131B9005B030BD1D2E0000312E0000CD1A00000E
S1131BA01D2D0000452D0000B43D002010B50B1C78
S1131BB04343002B13D00023FA24A400884201DD00
S1131BC0401A00E0091A01330A1C4243002A03D0D8
S1131BD0A342F3D1012107E0044A934203DC002825
S1131BE002D0011C00E00121081C10BDE703000025
S1131BF0064A002313605360054AA4215350203140
S1131C00535004315350103953507047883E0020CC
S1131C105C3F0020F0B55F4656464D464446F0B45E
S1131C2091B0A423C24AD358002B00D178E1C14813
S1131C30C14B9847BE492223FF33C85C0DABBF4A52
S1131C401C1CE0CAE0C4A8228A5C197AD3B280467C
S1131C508B4206D0002190235B00B54AD154002367
S1131C609846B34FC423F858203BFC58B44EB047B1
S1131C70051C201CB047011C281CB24B9847051CAE
S1131C80B14B9847061C0790C823F858AF4F211C46
S1131C90B847AF4B984702900391301CAD4B98471F
S1131CA0011C281CAC4B9847AC4B98470022AC4B0A
S1131CB0AC4DA847021C0B1C02980399AA4DA847D7
S1131CC0AA4B984708909D4E3068211CB8470AAD2E
S1131CD00A907068211CB8476860337ADBB22B72B3
S1131CE00798089A0A9C6968FA23DB0163435F1822
S1131CF02B7A002B00D17F429D4B1B689D4B1C68A7
S1131D00002F00D1F8E09C4B9C4227DCFA23DB0136
S1131D10584380188A4B984702908E4E974D894BB2
S1131D209A46FA239B009946954B9B460497201CA0
S1131D30B0479449A847071C0498B047011C381CB5
S1131D40A8470299D047071C01344C4509D0FC210F
S1131D508905D8470028EAD13A1C03E000231A1C5D
S1131D6000E0021C724E90235B00F55C2B1C1933BF
S1131D70DB00F3189A60EB00F618CC36201C754B88
S1131D809847B0600135EDB209224346D90FD31705
S1131D90404682424B419844A84504DB90235B00B3
S1131DA0634AD55404E0002190235B00604AD15477
S1131DB04346002B18DD5E4A161CD0361A33DB006E
S1131DC0D51800240294704F2B1C251C1C1C02984F
S1131DD03168B8470290281C7168B847051C08365A
S1131DE0A642F4D1041C01E0002402944046674B4F
S1131DF0984704900591594F0298B847644E049A45
S1131E00059BB047634DA8470290201CB847049A2D
S1131E10059BB047A84704904B4A93469047041C3F
S1131E2072B6BFF35F8F5C4D00232B70504F3E683A
S1131E300298D847801B3F68C71901232B70BFF352
S1131E405F8F62B6002F0EDA381C424B9847011C94
S1131E500298414B9847BF210906494B9847431EB6
S1131E6098413F1A0DE0381C3A4B9847011C0298E0
S1131E70394B9847FC218905484B9847431E9841A4
S1131E803F18201C334B9847011C0498324B984749
S1131E90FC218905414B9847431E98412418201C76
S1131EA0391C3F4B9847031C3E4A9246201C029320
S1131EB0191C9047041C72B6BFF35F8F364A9146D3
S1131EC0002313702A4D2A6893462E68381C029901
S1131ED0D0475B46C01A86192E60264B1C60324BD5
S1131EE01C6001234A461370BFF35F8F62B622233E
S1131EF0FF330F4A4146D1542C4B98471C4B1A6868
S1131F000AAB1B7A2A4D009343460193281C2949A6
S1131F10231C294CA047281C074CA0472748A0474E
S1131F2011B03CBC90469946A246AB46F0BDC046B3
S1131F305C3F0020C0D7000081280000883E0020BC
S1131F40616300004D59000091620000D15100000E
S1131F50C97F0000D1620000955F00002D80000061
S1131F600040DF40BD720000F1630000195600001C
S1131F70443D00201C3D0020E7030000315D0000CB
S1131F80755500000000164355560000517F0000AF
S1131F90416A0000D5800000D00000209D5500005B
S1131FA0AD1B0000F1520000243D0020F11B000095
S1131FB0943E0020D8D70000E59F00000CD8000014
S1131FC0F0B58BB0A423734AD3580020002B00D162
S1131FD0DDE07148714B984707AF002307930893DE
S1131FE001333B726B4CC333E058203BE3580393FB
S1131FF06B4EB047051C0398B047011C281C694B65
S11320009847051C684B9847061C0790C823E0585E
S11320100399664B9847664CA04704900591301C81
S1132020644B9847011C281C634B9847634B9847A3
S11320300022634B634DA847021C0B1C04980599AE
S1132040614DA847614B98477860079B7A68FA26E8
S1132050F60173439F185E4B1868A047021C0B1CC3
S1132060002057495B4DA8475B4B984704905B4A57
S1132070106853687043C018137A002B00D1404293
S11320800399574B98474B4DA847061C381C484B9F
S1132090984700224A4B4F4CA0474F4B9847011C8E
S11320A0404C301CA047404B9847A8474D49A04797
S11320B0041CFE2189054C4B984700280AD0FE20B9
S11320C08005211C3C4B9847011C0498354B9847CC
S11320D0051C09E0201CFE218905444B9847011C7E
S11320E00498304B9847051C3E48291C2D4B9847B3
S11320F0061C2D4B9847041C301C304B9847061C7B
S11321000F1C201C2A4B9847021C0B1C301C391C2A
S1132110374EB0470022374B374EB047431E9841E5
S11321202418FA23DB019C4200D91C1C284B1B6891
S1132130A34228D0264E3460304B98470023304ABF
S11321401360144A2221FF31535401395354326825
S11321502C4B9A6137682C4E281C134B9847051C4E
S1132160FA20C001391C114B9847031C0094301C01
S113217026492A1C264CA047301C084CA047254859
S1132180A047012003E02348044B984700200BB0EC
S1132190F0BDC0465C3F002028D800008128000024
S11321A0616300004D59000091620000D1510000AC
S11321B0C97F0000D1620000955F00002D800000FF
S11321C00040DF40BD720000F163000019560000BA
S11321D0C8000020416A0000D5800000883E00202D
S11321E0F15200000000FA467555000055560000F3
S11321F0F17700000000E03F29550000F11B0000CA
S1132200443D002000140040943E002040D80000CB
S1132210E59F000068D8000008B50C4B98470C4BAC
S11322201B68C01AFA23DB0098420ED9A423094A7A
S1132230D358022B09D9054B9847054B1860064B18
S11322409847002801D1054B984708BD650900004F
S1132250B83D00205C3F0020C11F0000151C000099
S1132260F0B5474680B490B05F4AA023D35CDBB29C
S113227091214900525C9A425AD15B4CA023E25C02
S11322800B1C62546A3BE358AC256351BC23E258EF
S11322900C3BE250201CB830544B98476359002B38
S11322A048D0514A131CB033694611CB11C1AC2339
S11322B0D358B8215058B832516892684C4CA04752
S11322C0002832D00AAE484D2B1CAC336A4613CBDF
S11322D013C2301CB823E9582B1CB8335A689B68C6
S11322E0444CA04706AC6B4607CE07C3201CC4234E
S11322F0E9582E1CC4367268B3683F4FB846B847D5
S1132300231C07CB07C63D4E2B1C98336A4683CB50
S113231083C2201C31687268B368C0470ECC0EC6F5
S1132320A422AB580133AB5004E0354B984701E08D
S1132330334B98472C4EA0239846F25C8233F254D8
S11323400DAD281C294B984706AC331C98336A46BC
S113235083CB83C2201C0D996A68AB68264FB847AB
S1132360231C07CB07C50D986168A268254B9847C5
S11323704346F35C002B18D01B4998200A589C2430
S11323800B590E58085909590D9D0E9C0096400989
S113239001901F2001404801411A029103950494C1
S11323A019481A491A4CA04717E00F4998200A58AF
S11323B09C240B590E58085909590D9D0E9C0096E2
S11323C0400901901F2001404801411A02910395E0
S11323D004940D480F490E4CA0470B480E4B9847E8
S11323E010B004BC9046F0BD5C3F00209113000087
S11323F09D1000000D11000011120000883E002005
S1132400F11B000005140000BC3D002090D8000022
S1132410E59F0000D4D8000081280000CB18C01824
S1132420C0B200290AD0131C0139C9B201315218B3
S113243019784018C0B201339342F9D17047C046AD
S113244070B51B4B9847002830D06420194B98472F
S1132450194B9847552829D1174DA847041CA8475C
S113246002281ED1144B9847051C0220002100228B
S1132470231C124EB04785420FD0114B984763007E
S11324801C19A40000220F4BE2500F4B98470F4B2E
S113249098470F480F4B984708E00F480D4B984753
S11324A004E00E480B4B9847084B984770BDC04654
S11324B011180000990B0000551800001D2400009D
S11324C0350F00005C3F00204D0F0000291800006C
S11324D018D900008128000024D900003CD900004C
S11324E010B50023014CA04710BDC0461D240000B8
S11324F0F0B5474680B400AF0C1C0B1C0B33DB0853
S1132500DB006946CB1A9D466D4655232B7000238C
S11325106B70A870002C0AD0EC70E918D65C0E71B0
S11325200133D9B28C42F8D8231C012601E00026DD
S1132530002303339846B044211C074B9847434675
S1132540E85404343119C9B2281C044B9847BD46D9
S113255004BC9046F0BDC046E12400003D180000D4
S113256000B585B001A80B4B9847019B6A461370D0
S1132570019B1B0A5370029B9370029B1B0AD3702E
S113258001200421044B98470448054B984705B0A3
S113259000BDC04691130000F124000050D9000092
S11325A08128000030B587B0041C6B4618701E49A2
S11325B043001A1892005258684642701A19920041
S11325C05258120A82701A1992008A1850686D467D
S11325D0E8705268120A2A7103AA01201072134883
S11325E005680395406804901B199B00002058500F
S11325F0039B69464B71039B1B0A8B71049BCB7134
S1132600049B1B0A6A460B7203300921084B984746
S1132610084D281C0849221C084B9847281C084BC5
S1132620984707B030BDC0465C3F0020BC00002086
S1132630F1240000804000205CD90000E59F0000E8
S113264081280000F8B54F464646C0B40124144B17
S11326509846144F144EE5B2C04763001B199B0003
S1132660DB599946B0474B46002B02D0281C0F4B30
S1132670984701340B2CEED10D4B98470D4B1B683A
S1132680C01AFA239B00984205D9094B9847094B75
S11326901860094B98470CBC90469946F8BDC04653
S11326A0350F00005C3F00204D0F0000A525000001
S11326B065090000843E002061250000F8B572B66B
S11326C0BFF35F8F0022314B1A7000233048002182
S11326D05A00D2189200115001330B2BF8D12C4C14
S11326E00023A422A3502B490B604B60A33A0A7227
S11326F0B821635004316350043162541439635077
S113270004316350043162546C3163542221FF312B
S113271063549939635004316350043162548332F1
S1132720A3549425635101200021813A1A4B984700
S11327306051002804D0002100220023174CA04738
S11327400122124B1A70BFF35F8F62B6144B984785
S11327500F4C144E251C9423E358002B0FD0B04784
S11327609423E8580021FA22520000230E4FB84760
S1132770012804D163300D4B98470D4B98470D4BFE
S11327809847FA204000094B9847E4E7D00000201E
S11327905C3F0020883E0020C102000011030000BD
S11327A06125000045260000A1040000990B0000EB
S11327B041240000192200007047C04610B5041CD3
S11327C0064B0360191C1831DC2281504C3304324F
S11327D08350DC30024B9847201C10BD90DC000075
S11327E0C540000008B4024B9C46DC3808BC604776
S11327F0BD27000008B4024B9C46E03808BC604783
S1132800BD27000010B5041C014B9847201C10BDC7
S1132810C75100007047C046F0B583B03220042190
S11328200022104B9847104B18601F1C0F4DDC35CD
S11328303B68002B08D110E0281C01990C4CA047E0
S1132840281C0C49A04700E0074E306801A900226B
S11328500023094CA0470028EED1FA204000074B82
S11328609847E5E7C10200003C42002048410020AF
S1132870E940000028D70000A1040000990B0000E3
S113288010B582B00190084B1868002809D001A93E
S113289000220023054CA047013843425841C0B2EE
S11328A000E0002002B010BD3C42002011030000F3
S11328B010B5041C084B0360191C1831DC2281502C
S11328C04C3304328350DC30044B9847201C044BB7
S11328D09847201C10BDC04690DC0000C540000095
S11328E0C751000008B4024B9C46DC3808BC604762
S11328F0B128000008B4024B9C46E03808BC60478D
S1132900B128000038B5064C201C04210522002300
S1132910044DA847201C0449044A054B984738BD78
S113292048410020B93E0000BD270000B00000204F
S1132930B951000008B572B6962001F065FC9620E6
S113294001F062FCF8E7C0460B4A30B5946892681F
S1132950231C002A0CD1002380221D5992059A18A9
S113296004331560B02BF7D18023034A9B05936091
S113297010308000C15030BD00ED00E008B5044BBC
S11329801A78002A03D101321A7000F055FF08BDED
S113299040420020036870B51B6900210122041C19
S11329A09847061C431C0ED0236800211B69022291
S11329B0201C9847051C2368201C1B69311C00221D
S11329C09847281C70BDFDE708B50348042105227B
S11329D001F070F808BDC04618440020094B10B53A
S11329E008330360084B00215A1CFF3202E0043311
S11329F0934206D01C688442F9D11960043393428F
S1132A00F8D110BD98D9000044420020F0B54746E3
S1132A1080B40E1C82B03449051C07F07BFB041EF5
S1132A2008D1324B1B68002B0FD0201C02B004BC11
S1132A309046F0BD281C2E4907F06CFB002807D1F6
S1132A402A4B01241B68002BEFD1FFF7BDFFECE7F5
S1132A50281C284907F05EFB002824D0264F0024B8
S1132A603B1C03E001340433402C22D01A68002AB2
S1132A70F8D12B783A2B30D06846291C01F0A4F900
S1132A80684601F0FBF9002813D0684601F0D8F934
S1132A90002811D0684601F0DFF9002809D0A3000E
S1132AA0F8500334C1E7114B02241B68002BBCD13E
S1132AB0CBE701246442B8E7684601F0B3F9051E88
S1132AC0F7D0036868469B68984601F0A9F90B4A59
S1132AD0011C3240281CC047DFE7281C08496A460D
S1132AE007F0A2FA0098D8E77CD9000068430020D8
S1132AF08CD9000084D9000044420020FFFFFEFF6F
S1132B00C4D9000008B5031C0020022B0ADD0749C4
S1132B10033B9B005A585850002A04D01368101CD9
S1132B205B68984708BD01204042FBE7444200200F
S1132B30F8B50C1C171C022812DC104B1B68002B68
S1132B4001D1FFF741FF002F08D00D4DE619217880
S1132B50281C013401F018F9B442F8D1381CF8BD2E
S1132B600338084B8000C058002803D003681B6852
S1132B709847F4E701204042F1E7C046684300204B
S1132B80184400204442002010B50C1C022809DC23
S1132B900C4B1B68002B0FD00B4801F0C9F82070B8
S1132BA0012010BD0338094B8000C058002806D00E
S1132BB003689B689847F4E7FFF706FFECE70120FA
S1132BC04042EEE7684300201844002044420020BD
S1132BD008B5031C0120022B08DD033B054A9B00BA
S1132BE09858002803D00368DB68984708BD012083
S1132BF04042FBE74442002008B5031C0020022B9E
S1132C0008DD033B05489B001858002803D00368DF
S1132C101B69984708BD01204042FBE7444200205D
S1132C2008B5022804D8802300209B014B6008BD0E
S1132C3005F00CFB0923036001204042F7E7C0467E
S1132C4008B5012005F008FB7047C04608B5FFF73A
S1132C5095FEFFF7F9FFFEF7A1FE08BD074A1368CA
S1132C601818EFF30881884202D21060181C7047CC
S1132C700C220120024B40421A60F8E7CC000020ED
S1132C808844002008B5002800D1FEE7FFF752FE73
S1132C90FBE7C04608B5002107F011F908BDC0469E
S1132CA0FEE7C0461648174910B588420DD0164BAA
S1132CB099420AD2CA43D31800229B0801339B00CD
S1132CC084588C5004329A42FAD11049104B9942DC
S1132CD00BD2CA430020D31800229B0801339B0067
S1132CE08C18043220609A42FAD1FF21094B0A4A17
S1132CF08B43936005F0AEFDFFF7A8FFFEE7C046E7
S1132D000CE70000B00000207401002074010020D2
S1132D108C4400200000000000ED00E01723002A8E
S1132D2001D0181C7047064A89008B58002B03D029
S1132D30834203D01D23F4E78850F2E70023F0E731
S1132D40C04300201723002901D0181C704700221B
S1132D501F2800D8024A01238340D3600023F4E7EC
S1132D6000180040F8B5002301260B4C0B4D0C4F06
S1132D702370321C9A402969114205D02A619B00B4
S1132D80DB59002B00D0984723780133DBB2237042
S1132D900F2BEED9F8BDC046BC43002000180040FC
S1132DA0C04300200223044A11780B431370537864
S1132DB05BB2002BFBDB704700180040402300B5DA
S1132DC0124A83B0916905200B439361002301A942
S1132DD00B7000F00FFD052000F0CEFC01230C4A1F
S1132DE011780B43137053785BB2002BFBDB094B58
S1132DF00022191C403104C38B42FCD11022064B23
S1132E001A60FFF7CFFF03B000BDC04600040040C6
S1132E1000180040C043002000E100E0002301222C
S1132E20036043608372023302724272C37270475A
S1132E30F0B500230C1C83B001A94B70CB7023792F
S1132E40051C0B70237A20788B70002600F0C8FBD9
S1132E501F2D00D8124E0722A37A2A409200E07A4E
S1132E60002B01D0082318430F279740EB089B0041
S1132E70F31899699040B9430A1C02439A61637A32
S1132E80002B06D10122AA4073699343736103B0F6
S1132E90F0BD0122AA40151C73691D437561F6E754
S1132EA0001800407047C0468C460C49F0B50B78BA
S1132EB0002B10D100230025094C0A4F0A4EF218AA
S1132EC0E75004331560182BF9D1173B0B70634698
S1132ED080002350F0BD024CF9E7C0464443002073
S1132EE048430020A52E00000044002010B5041C17
S1132EF082B006490622684605F049FD201C01F00F
S1132F0037FB6B46185602B010BDC046D4D900003A
S1132F1008B5024B00201B68984708BD48430020B1
S1132F2008B5024B01205B68984708BD4843002060
S1132F3008B5024B02209B68984708BD484300200F
S1132F4008B5024B0320DB68984708BD48430020BE
S1132F50F8B5041C0E1C171C056800F079FCA38D41
S1132F60002B03D000F092FC0520F8BDA78500F0EB
S1132F708DFC322305226662E2542E3BAB75237A24
S1132F80002B06D1637A0020002BEED00823AB750A
S1132F90EBE72023AB75F5E7931C9B00C31859603E
S1132FA00123934030211A1C435C1A434254704756
S1132FB008B50122FFF7CCFF08BDC046F8B5684B41
S1132FC08000C5582C68E369002BFCD1267EA37DC4
S1132FD030221E403123AF5CEB5C1F40012333429F
S1132FE019D0EA8D002A4FD0AA6A511C1378A9621D
S1132FF06979DBB2012900D177E09BB2DB05DB0DF7
S11330002385EB8D013B9BB2EB85002B03D1013370
S113301023750133A3750223334205D0002223759F
S11330203133EA54FB073DD40423334214D0AA8D30
S1133030002A27D0638BDBB21A0737D43F22134010
S113304037D09A0757D51A223223EA54628B303B81
S1133050134363837B075AD41023334203D023756D
S113306023763B4216D12023334203D023752376A3
S11330703B0713D40823334203D023752376BB06BE
S113308004D4F8BD2375E7E72375C4E72B6A281C2D
S11330909847F6E7281CEB699847E4E7281CAB69D6
S11330A09847E7E7281CEB689847BDE737221340A9
S11330B0C7D1238D696ADB05DB0DDAB20A706A6A4F
S11330C0511C6962697901292DD0AB8D013B9BB2FA
S11330D0AB85002BC0D1042222752E32AB54BB0722
S11330E0BAD5281C2B699847B6E7517802320902F1
S11330F00B43AA6282E75A070DD4DA0719D51322C3
S11331003223EA54628B313B13436383A2E7281CC6
S11331106B699847A0E71E223223EA54628B2E3B48
S11331201343638396E71B0A53706B6A01336B6224
S1133130CBE7DA0607D542223223EA54628B223BDC
S11331401343638386E720221A4200D182E73223A5
S11331502132EA54628B123B134363837AE7C046FD
S113316000440020F0B5444656464D465F46F0B450
S1133170051C0C1C8FB02960081C904601F0F8F95E
S113318001232268061C0520134206D00FB03CBC64
S113319090469946A246AB46F0BD022722681730F6
S11331A01740F3D1B01C8340AE4914360A6AF6B214
S11331B013430B622D23994643464A469B5C08A958
S11331C0301C0B7000F016FB301C00F0D5FA4A4698
S11331D043460021985C01F0FBF84346DB7A424603
S11331E06B712423D35C0AAEAB712523D35CEB71E2
S11331F0D37E2B72137F6B722B68181C994601F0D7
S1133200B7F9434637801F8A80231430DB019F427D
S113321000D1B8E000D8EFE0C023DB019F4200D129
S1133220F8E080231B029F4200D0EEE003230693C4
S11332300023059343461B68424602934346DB68DA
S1133240039343465B69049343461B7E9A462623B5
S1133250D35C9B465368002B00D1BBE0802252050F
S1133260934200D0B4E027234246D35C0021002BD4
S113327000D1EBE043465B7E002B03D043464A4635
S11332809B7E93732A68D369002BFCD14B46029A28
S11332909981039B1343049A134342465268134390
S11332A01F4353461B021F435B465B071F434246B3
S11332B02723D35C002B01D104331F434346597E9B
S11332C01B7F89025B02194342464346927ADB7AAA
S11332D01343194343465A7F24231202114342469F
S11332E0D25C0B1C5204134341462522895C090419
S11332F0194343461B89FF2B00D190E080225204DE
S1133300174319432C234246D35C002B03D1564B5D
S11333109B789B0701D580231F432A68D369002B20
S1133320FCD14B4659602A68D369002BFCD14A462C
S113333006A917604B73CB738B734346186B5B6B97
S11333408022736043469B6B0027B3604346DB6B6C
S11333500A730A90F360F9B2002810D0431C06D017
S113336006AB1873000CC0B209A900F039F9013793
S1133370042F0DD0BB00F058F9B20028EED1201C68
S113338001F046F8EAE7082306930023059351E782
S113339000230022EB85EB602B616B61AB61EB6179
S11333A02B62AB626B62AB853033EA540133EA546F
S11333B00133EA540133EA54286801F0D9F8041CB3
S11333C02A49FFF771FD2A4BA400E5500020DDE6F1
S11333D000214FE727234246D35C002B28D0069BCD
S11333E00093106A916A059B321C00F029FF0028A3
S11333F000D0CBE631883DE780239B019F4204D176
S1133400102306930F3B059314E710230693002320
S113341005930FE708230693073B05930AE7434602
S1133420DB7E002B00D16DE78023DB041F4369E7BB
S1133430136AC0B2079300F0E9F9069A011C0092DE
S11334400798321C059B00F0FBFED0E7136AC0B25C
S1133450059300F0DBF9321C011C059800F0DCFE3A
S1133460C5E7C0460004004000200041BD2F000015
S113347000440020F0B54F4646461723C0B4002A46
S113348004D1181C0CBC90469946F0BDC479053390
S1133490002CF6D00568EB69002BFCD10233914671
S11334A0002701269C462B7E1E4207D11F4B02E0BB
S11334B0013B002B37D02C7E2642F9D042797B1C6D
S11334C09BB2CC5D012A27D0A2B290461F1CC479BE
S11334D00368002C02D0C48D002C13D04A46013A54
S11334E093B29946002BDED12B7E9B0708D40F4B59
S11334F0022102E0013B002B15D02A7E1142F9D0B3
S11335000023BEE7DC69002CFCD142461A856246E2
S11335101C7E2242FBD0E1E7CB5C02371B02234333
S1133520BFB29846D3E71223ABE7C046FFFF0000C3
S1133530D37870B5002B31D11478802C47D08023F8
S113354024065B021C43537802251E1CAE4307D19C
S11335509378002B37D180239B021C43416053781E
S1133560013B012B35D9A0250B04ED051B0C2B4386
S1133570D025234383622D060B0C2B432343836204
S1133580D378002B09D1630303D59378012B23D07F
S113359041615378013B012B13D970BDA0240B0466
S11335A0E4051B0C2343D0244160240683620B0CE6
S11335B023438362D378002BEFD15378013B012B53
S11335C0EBD88160E9E7C023DB021C43C6E7002493
S11335D0B9E7024B1C40C6E78161DAE7FFFFFBFF56
S11335E008B50A1C031CC1090020002904D106499E
S11335F058098C46C00160441F210B401E39994074
S1133600FFF796FF08BDC046004400410823064A60
S113361091690B43936101230121044A13701378C8
S11336201942FCD17047C04600040040000C004021
S113363070B50D784B782D02041C0543002B02D085
S11336408023DB021D434B7A002B02D080231B0313
S11336501D434E68012E0FD9731E334029D1022E0B
S113366005D00222013352009642FBD81B021843B4
S11336708023041C5B031D430B7A002B02D08023A0
S11336809B031D430E4A53780D4E5BB2002BFADBAD
S113369000F0DEF8B4607378094A5BB2002BFADB01
S11336A0802351685B020B401D43556000F0EEF827
S11336B070BD802334029B0204431D43DCE7C046F3
S11336C0000C004010B5041C0B4A53785BB2002B6D
S11336D0FBDB00F0BDF8094B07491C704B78064A28
S11336E05BB2002BFADB8021536849020B43536021
S11336F000F0CCF810BDC046000C0040040C0040A3
S1133700F8B5071C194A53785BB2002BFBDB00F0B9
S11337109FF8174B154A1F705378144C5BB2002B5B
S1133720FADB6068C004C00E00F03AFF061C104BC0
S11337301F7065680F4BED02ED0F1F7063785BB26D
S1133740002BFBDB094B9968090A8CB200F09EF848
S1133750002D03D0611CCE40301CF8BD012CFBD9D8
S1133760301C211C01F034FD061CF5E7000C004060
S1133770040C0040080C004010B5041C00F068F86C
S11337808021054B054A1C705388C9010B435380A3
S113379000F07CF810BDC046020C0040000C004054
S11337A010B5041C00F054F880200E4B0E4A1C7017
S11337B054880E4B518824050B40538051880C4B80
S11337C0240F0B405380C001538807490342FBD1A7
S11337D04888064B2202034013434B8000F056F8FE
S11337E010BDC046020C0040000C0040FFF0FFFF7B
S11337F0FFBFFFFF10B50C7824020443FFF7D0FF8E
S1133800014BA4B25C8010BD000C004010B5041C38
S113381000F01EF8054B1C70054B5C8800F036F870
S11338202405240F201CFFF76BFF10BD020C004081
S1133830000C00407047C04608B500F045FFFFF794
S1133840F9FFFFF7F7FFFFF7B9FAFFF7F3FF08BD3A
S11338500B4B1A68002A05D1EFF31081002905D01B
S113386008490A701A6801321A60704772B6BFF3C9
S11338705F8F054A1170034A01311170F2E7C046A7
S11338806043002064430020D0000020084B1A68E5
S1133890013A1A601B68002B09D1064B1B78002BD8
S11338A005D00122044B1A70BFF35F8F62B67047D4
S11338B06043002064430020D0000020F0B54F4650
S11338C04646C0B4041C85B000285CD0006800F0F3
S11338D04FFE0E25002314306D44C0B22B80A7691F
S11338E06669FFF793FF1023011C0093381C2A1C00
S11338F0002300F0A5FC2268D369002BFCD12B889F
S11339009381E268236913431D22A256013228D011
S1133910C025AD021D431C23E356013319D0A26810
S1133920FF2A1BD0294B15431E43002C25D02268A7
S1133930D369002BFCD15560002C18D02268D369C0
S1133940002BFCD10020166005B00CBC90469946B3
S1133950F0BD1F4BA2681D40FF2AE3D11D4B1E433F
S1133960E3E71D4D1D4080235B021D43D3E71B4845
S11339701B493F2200F0CCFBE0E7184818493F22DE
S113398000F0C6FBD3E7154B154F181C391C9C22BD
S1133990984600F0BDFB206800F0EAFD0E25A369FF
S11339A014306D44C0B299462C806669FFF72EFF2F
S11339B01023011C00932A1C4846002300F040FCFD
S11339C04046391C3F2200F0A3FB94E70400004169
S11339D0FFFFFEFF04000040FFFFFDFFE8D90000E9
S11339E0ECD9000070B5051C86B000283CD01C2022
S11339F01D210023285669560293039304930593CB
S1133A0000F07CFF0024061C1C202B191856311CC6
S1133A1000F0C4FFA30002AA0134D050042CF3D157
S1133A20039B00200193013B022B02D8114A9B0007
S1133A3098581E22AB5E013308D0029B002B03D1A1
S1133A40049B0193022B08D006B070BD029B022B8D
S1133A50FAD180235B021843F6E7059B032BF3D1CD
S1133A6080239B021843EFE703480449712200F0C6
S1133A704FFBBCE7DCD90000E8D90000ECD900001A
S1133A8010B5041E0BD0FF23A3600023E360236161
S1133A9096239B01A36188235B03636110BD0348E4
S1133AA00349E12200F034FBEDE7C046E8D9000009
S1133AB0ECD90000F0B54E4645465746E0B4041C28
S1133AC084B00E1C151C002800D19DE0604F3B788B
S1133AD0002B00D183E0201CFFF7D2FFFF232677C1
S1133AE0A377E3776577201CFFF77CFF291C071C6D
S1133AF0301C00F003FF431C17D00F2505400120A4
S1133B00291C404200F06CFF061C021C2060002CA3
S1133B106AD0D369002BFCD1022113688B43136054
S1133B20012223681868024205D004B01CBC9046E8
S1133B309946A246F0BD1B6819408846F5D1A81CD9
S1133B40824044490B6A1A430A62424602AB1A7025
S1133B5014239946A94402A94846FFF74BFE484658
S1133B60FFF70AFE0021002000F032FC6761201CF0
S1133B70FFF7A4FE424602AB5A719A71DA71202310
S1133B80271C9A461C37A2440023FB56994601334E
S1133B900FD04846291C00F0DDFE02ABC0B21871FC
S1133BA0FF2806D06A464B46D371D07903A9FFF7A4
S1133BB017FD01375745E7D1274B9E4230D0002CE3
S1133BC028D02368DA69002AFCD1002C31D0DA69C4
S1133BD0002AFCD1196802320A431A60A5E7FFF7EC
S1133BE02BFE01233B7076E71C4B562299461C4B57
S1133BF048469846191C00F08BFA3F224846414635
S1133C0000F086FA226884E714481549ED2200F092
S1133C107FFA5BE7114812493F2200F079FAD0E7B6
S1133C200122104B211C1A600F48473204F0AFFEEA
S1133C30C5E70A4E0A4D301C291C4A3200F068FAC6
S1133C40301C291C3F2200F063FA2368BFE7C046FA
S1133C50404200200004004000080042E8D900006F
S1133C60ECD900006843002018440020F0B5474612
S1133C70041C80B40E1C151C002820D0184B19609D
S1133C802268184B9A4218D00DDC174901238A4246
S1133C9003D0164901338A420DD1154A9B009D5029
S1133CA004BC9046F0BD134904238A42F5D012495E
S1133CB001338A42F1D00023EFE70323EDE70F4BF2
S1133CC0B32298460E4F181C391C920000F020FABB
S1133CD0034B4046391C0B4A1E6000F019FACFE72B
S1133CE08443002000140042000C004200100042F3
S1133CF06C43002000180042001C0042E8D9000078
S1133D00ECD900006602000010B5041E04D023683C
S1133D10187E4007C00F10BD02480349034A00F053
S1133D20F7F9F4E7E8D90000ECD900002303000018
S1133D3010B5041E08D0201CFFF7E6FF0028FAD0B7
S1133D402368188D80B210BD02480349034A00F06D
S1133D50DFF9F0E7E8D90000ECD900001103000016
S1133D6010B5041E04D0012023681B7E184010BD2A
S1133D70CC2203480349920000F0CAF9F3E7C04695
S1133D80E8D90000ECD9000038B5041C0D1C00284B
S1133D900ED0ED05ED0D201CFFF7E2FF0028FAD050
S1133DA0022223681D8521680B7E1A42FCD038BD8F
S1133DB002480349034A00F0ABF9EAE7E8D90000F6
S1133DC0ECD900001903000038B5002303604360F8
S1133DD00B78041C2F2B01D0201C38BD4B78002BF2
S1133DE0FAD0481C20604B782F2B14D0002B15D010
S1133DF0031C01E0002A0CD05D1A013323601A78F9
S1133E002F2AF7D1291C0133236000F043FF60609F
S1133E10E2E7291CF9E7031C0021F4E70021F4E799
S1133E2000687047436810B5002B07D0041C181CA9
S1133E3000F050FF012801D1606810BD0020FCE7AC
S1133E40406808B5002805D000F044FF43425841BB
S1133E50C0B208BD0020FCE7436810B5002B0AD0AF
S1133E60041C181C00F036FF002804D160680028E8
S1133E7001D0043810BD0020FCE7C0464068431E52
S1133E809841C0B27047C04608B500F0B5F808BD07
S1133E9008B4024B9C46DC3808BC6047893E0000ED
S1133EA008B500F0AFF808BD08B4024B9C46DC38F6
S1133EB008BC6047A13E000038B5041C1D1C00F07E
S1133EC043F8201C291CDC3000F0DAF8064B201CD7
S1133ED01A1C191C08322260DC222031A1505433F0
S1133EE00432A35038BDC04688DC000008B54B003E
S1133EF05918C90043181A1CB8325268A8331B68F1
S1133F00002A06D0002B03D04118AC31181C90476E
S1133F1008BD002BFCD09847FAE7C04610B500282E
S1133F2008D014685368002C05D0DA0705D45B1058
S1133F30C018A04710BDDA07FCD55B10C018036891
S1133F401C59A047F6E7C046F0B5474680B4244B59
S1133F5082B003600025031C171C6A46041C0095EC
S1133F6001950833884603CA03C31E4B23611E4BC5
S1133F7063611E4BA361231C08332562E461636201
S1133F801B4BA362BFF36F8FBFF34F8F5C23261CC1
S1133F90E56225646564A5656036E5540133E5543E
S1133FA0301C0021482204F0FBFCA8239622E55093
S1133FB01433E5500433E5501433E55092010433CF
S1133FC0E250301C41463A1CFFF774FD301C09498D
S1133FD0221CFFF74BFE201C02B004BC9046F0BD2F
S1133FE0F0DC00001FB504247C440FCC98471FBDAF
S1133FF01D3F0000ED3E000008B56030FFF798FE5D
S113400008BDC04610B50C1C6030FFF7BDFE201C77
S113401010BDC04600207047F8B58E18051C0F1C53
S11340200C1EB44202D10AE0A64208D001342B6827
S1134030621E5B6A1178281C9847431CF4D1E01B6C
S1134040F8BDC046F8B58E18051C0F1C0C1EB442F2
S113405005D10AE00134631E1870A64205D02B680E
S1134060281C9B6A9847431CF4D1E01BF8BDC0464A
S113407000207047002070470020704700207047E0
S113408010B5041C84B000F027FE0B4B01A81A1CC9
S11340903C33636000230832636122600749221CB9
S11340A005F0A0FF064901A804F00AFB6061FEF7D1
S11340B0F1FD201C04B010BDF8DC0000C4D90000E0
S11340C03CDD0000074B10B51A1C041C08323C33BD
S11340D002604360406904F02DF9201C00F010FEDA
S11340E0201C10BDF8DC00000EB430B5041C82B0F6
S11340F005AB20CB4069019304F0DCF96069291C0D
S1134100019A04F02BFE02B030BC08BC03B018477F
S113411038B5051C0C1C131C291C0248221C00F079
S113412003F838BD40DD00000FB4012008B504F0E9
S113413093F8C04638B50D1C041C00F03BFB6B1C07
S11341400ED00023E35601330BD0E3686268201CD1
S113415001211A6000F096FB201C002100F06AFB8C
S113416038BD034803492822FFF7D2FFEDE7C046D4
S113417004D6000074DD000002E0834206D00C3156
S11341800023CB565A1CF8D1181C70474868FCE72A
S1134190021C08B5531C03D10BE09A420AD00C311F
S11341A00023CB56581CF8D10448FFF7BDFF01206B
S11341B0404208BD4868431CFBD1F5E714DE00000B
S11341C0021C08B5531C03D10BE09A420AD00C31EF
S11341D00023CB56581CF8D10448FFF7A5FF012053
S11341E0404208BD8868431CFBD1F5E734DE00007B
S11341F038B5051C00F09CFC041C00F099FC001B65
S1134200A842FAD338BDC04608B5FA239B005843E8
S1134210FFF7EEFF08BDC04610B54908402300244F
S1134220814202D2181C10BD1C1C631C091A9BB2CB
S11342308842F9D94023FF2CF4D814800023F1E7F5
S1134240F0B556464D4644465F46F0B4041C251C62
S113425087B010A80678402075438D4206D907B070
S11342603CBC90469946A246AB46F0BD04920D1C58
S1134270221C002B3FD1301C002101F0A3F90023A4
S113428083463F2101209C469A462E1C002700228B
S1134290002380460C1C24E04146A9400D1C4146E5
S11342A0A140101C8946191C801859410B1C021C82
S11342B0594600920193294203D040461043021C00
S11342C0019B9F420BD801D1964208D861464846CB
S11342D0014350462843921BBB418C468246013C15
S11342E010D3202149426518D6D520210D1B414603
S11342F0E9400D1CD3E70024012B07D0049B0020C8
S11343001C80ACE763465C42240CF7E74B0F1C1C93
S1134310CB009846301C0023002101F053F9002300
S11343209C4620339B466346A1460090019103932B
S11343306B461B7B00200593002300219C463F22F3
S113434027E001249C40231C0127464697403E4019
S1134350041C0D1CB2464E4624184D4133405646AB
S1134360201C291C334304D00121231C0B43181C9B
S1134370291C019B8B420AD802D1009B834206D898
S1134380009B019CC01AA14163463B439C46013AF1
S113439009D320235B42D318D3D55B4601249B1A4F
S11343A0DC40231CD0E76146039A8B1A0749DB08DB
S11343B08B4206D9131C01330393082BB8D1402038
S11343C04DE7059A54031C43A4B297E7FF1F00006E
S11343D030B50E4C83B02378051C002B06D0002981
S11343E004D1637883420FD01D200BE001A9132070
S11343F00D70FFF7FFF91320FFF7BEF9012300202A
S11344006570237003B030BD0020FBE788430020B3
S11344103A4B984243D00AD9394B984217D0394B7A
S1134420984232D0384B98421BD000207047374B0B
S1134430984220D0364B9842F7D1012943D0002925
S11344403FD002293BD00329EFD13248EEE70129BE
S113445031D000292DD002292FD00329E5D12E48AF
S1134460E4E701293FD000293BD0022937D00329B2
S1134470DBD12A48DAE701293DD0002939D00229C5
S11344802BD00329D1D12648D0E7012923D00029F4
S11344901FD002291BD00329C7D12248C6E701290E
S11344A025D0002921D002290FD00329BDD11E48CF
S11344B0BCE71E48BAE71E48B8E71E48B6E71E48E0
S11344C0B4E70320B2E71D48B0E71D48AEE71D4836
S11344D0ACE71D48AAE71D48A8E71D48A6E71D4804
S11344E0A4E71D48A2E71D48A0E71D489EE71D4814
S11344F09CE71D489AE71D4898E7C0460010004213
S113450000180042001C004200140042000800424F
S1134510000C004203001F000500520003001300BA
S1134520030007000300190002000F0005005300F8
S113453005003F0005003E0003001E0003000100CB
S113454002000E0003001800030016000300170009
S11345500300060003001200030010000300110012
S113456002000C0002000D0003000400030005001B
S113457070B586B06946094B6A4670CB70C170CB82
S113458070C1002399005158814205D00133062B94
S1134590F8D1002006B070BDD8B2FBE764E000009B
S11345A010B508282CD81B4B80001B589F46802030
S11345B0000210BD184B5869FBE7184B186A184BDA
S11345C08005800FC340181CF3E70220124C2368B7
S11345D01840EED010221149CB681A42FCD023684F
S11345E05B070FD40F48E4E70B4B1869E1E750234E
S11345F00A4A0020D35C5B07DBD5074BD868D8E7B1
S11346000020D6E70020FFF701F9A3681B041B0C68
S11346105843CEE77CE000008C43002000080040B3
S113462000127A00006CDC0210B5082841D8224B35
S113463080001B589F46002010BD02231F4A002003
S113464091690B439361F7E702231C4A0020918A86
S11346500B439382F0E70223184A0020116A0B43AC
S11346601362E9E702231020154C226813432360E8
S11346702268144B1340114A9384D3680F4918429B
S1134680FBD0A3680020CB6263688B6223689BB273
S11346908B84D1E7442202230849885C03438B546A
S11346A00020C9E70223054A0020118A0B43138224
S11346B0C2E71720C0E7C046A0E0000000080040A1
S11346C08C4300207FFF0000F0B54746C2221E2124
S11346D080B4314BD2009A60304A0024536884B0CD
S11346E08B435360012301AD2B70E0B2291C0134CC
S11346F0FFF780F8252CF8D1294B274C1B68A169BA
S1134700DB045B0E1A04274B04260B4013430822D8
S11347104027A361A369042033431343BB43783286
S113472090461343E022D20013431F4A1340A3616F
S1134730FFF77AFF4246236A0620BB4313431B4A12
S113474013402362FFF770FF0024FEF75FFF20236E
S1134750291C02206B606C702C726C722E70FEF738
S113476067FF0220FEF7AEFF114B291C1C725C721E
S11347709C72DC72012300206B6005332B706C701B
S11347802C726C72FEF754FF0020FEF79BFF04B0FE
S113479004BC9046F0BDC046000800400040004103
S11347A024608000FFFF80FFFFEFFFFFFFFCFFFF9F
S11347B00004004070B5051C82B00C1C4B1C28D0B2
S11347C0C8B200292CDB184B46099C46F601664406
S11347D02C70E217D20EA3181F241C40A41A012225
S11347E0131C64B2A3406B60002301A92B72AB724B
S11347F06A720B708B704A7000F09CFA331C14338D
S1134800EB6004332B61103608336B61AE6102B088
S113481070BD064806491F22FFF77AFC2C70F6E7A4
S11348202C700026D5E7C04600440041C4E00000D7
S1134830D8E0000030B5041C007883B043B20D1CEE
S1134840013313D0A37A01A90B70237A65725A1E1F
S113485093418B70012D03D0002D01D0022D00D186
S11348604D70C0B200F066FA03B030BD034804498D
S11348703622FFF74DFC2078E4E7C04604D600005A
S1134880D8E0000030B5041C007883B043B20D1C9E
S1134890013313D0637A01A94B70237AA5725A1E8F
S11348A093418B70012D03D0002D01D0022D00D136
S11348B00D70C0B200F03EFA03B030BD03480449A5
S11348C04C22FFF725FC2078E4E7C04604D600001C
S11348D0D8E0000010B5041C012904D0201C0549AF
S11348E0FFF74AFC10BD0449FFF746FC431CF9D10D
S11348F0F4E7C046D8DE000054DE000038B50D1CD5
S1134900431C1BD00021FFF7E5FF431C16D00F24E6
S11349100440281C6B1C08D00021FFF7DBFF431C5C
S113492003D00F231840A04206D0631C03D0431CBD
S113493002D00120404238BD201CFCE7281C6B1C1F
S1134940F9D000210124FFF7C5FF6442431CE8D1DC
S1134950F1E7C046F8B5431C04D00F2631400D1EC4
S1134960052D02D901204042F8BD0A4F041C391C10
S1134970FFF70EFC3040A84207D0074F201C391C1B
S1134980FFF706FC0640AE42ECD1201C391CFFF7B1
S113499017FCE9E7D8DE000054DE000070B5431CC4
S11349A004D00F2421400D1E052D02D901204042C0
S11349B070BD0949061CFFF7EBFB231C0340AB4207
S11349C007D0301C0549FFF7E3FB231C0340AB422F
S11349D0ECD100092040EBE7D8DE000054DE0000F3
S11349E070B586B06A46084B684670CB70C270CB0F
S11349F070C20F231940052903D90120404206B093
S1134A0070BD89000858FAE740E10000032208B5A8
S1134A10024B1B689A7300F085F908BD60440020BE
S1134A2030B50125354B364C1D6023788FB0002BF3
S1134A305CD00023002201AC22746361A36122775D
S1134A402362636200202370A370A380A271238178
S1134A506270A272E2722273A27362732385638509
S1134A60A385FEF74DFE274900F0B2FB002832D0A3
S1134A700023012807D040080133012822D00B2B42
S1134A80F9D1E023DB00A3800823A370073B637004
S1134A9000231D4DA3621D49013B221C281CE36217
S1134AA000F0D4F91A490222281C00F053F97F219E
S1134AB02A68D37B8B43FCD1118802330B431380C8
S1134AC00FB030BD082BDCD8062B13D8042B08D923
S1134AD0A023DB00D7E70F480F495722FFF718FB45
S1134AE00023E0221B02D2001340CCE7FEF7A4FE11
S1134AF025709EE7C023DB00C5E7C046A443002021
S1134B004042002040420F00604400200030004238
S1134B100D4A000058E100006CE1000008B5034BA9
S1134B201B68002B01D1FFF77BFF08BDA4430020C5
S1134B3008B5054B1B68002B01D1FFF771FF034833
S1134B4000F0D6FA08BDC046A4430020604400200B
S1134B50F8B5061CFFF7ECFF301A21D48027802318
S1134B60114D3F03EF5011491320FDF7EDFE104C9A
S1134B70206800F04BF91F220E4B00211B5C201C07
S1134B8013401E3A9A4010232A60627E13436376D0
S1134B90102322685373321C00F0C0FA2F60F8BD52
S1134BA000F0C0F8FBE7C04600E100E0F54D00006E
S1134BB060440020DCE100001021064B1A681173E8
S1134BC05A7E8A4380215A768023034A0903D150AE
S1134BD07047C0466044002000E100E01022054B0D
S1134BE080211B6809039A731A73C023024A5B006D
S1134BF0D15070476044002000E100E00A4B0833C4
S1134C0003608368002B0AD0084B1A68824201D1E2
S1134C1006E01A1C53688342FBD143685360704713
S1134C2042681A60FBE7C046E0E10000A8430020A8
S1134C300D4B10B5083303608368041C002B0AD0A5
S1134C400A4B1A68904201D10AE01A1C53689C422C
S1134C50FBD163685360201C00F0B5FA201C10BD22
S1134C6042681A60F7E7C046E0E10000A84300206C
S1134C70064B8160083303600023027343600029FC
S1134C8003D0034B1A68186042607047E0E10000EB
S1134C90A84300200E4B70B51C68061C0D1C002C8C
S1134CA003D112E06468002C0FD0A0680028F9D06A
S1134CB0311C2A1C05F03FFA0028F3D1A06805F046
S1134CC033FAA842EED1201C00E0002070BDC0469B
S1134CD0A8430020007B7047074B10B50022041C3A
S1134CE008C0FFF7C5FF054B201C1A1C34330832DB
S1134CF02260636010BDC046A0D90000F0E100004E
S1134D00074B10B51A1C041C08323433026043608C
S1134D100430FFF773FF201CFDF760FE201C10BD5C
S1134D20F0E1000008B5024800F020FA08BDC046D2
S1134D3040E20000802200B583B001AB1A700A780B
S1134D405A704A789A708A78191CDA70FEF748FC0F
S1134D5003B000BD931C9B001950022A09D0032AFA
S1134D600CD0012393401A1C037E1A4302760020C0
S1134D7070471023027E13430376F8E72023027E54
S1134D8013430376F3E7C04670B50126154B800044
S1134D90C5582B682C7E9B7B1C406B7E1C40264296
S1134DA01AD10226264211D11026264208D12026E5
S1134DB0264204D06B69281C98472B689E7370BDEB
S1134DC02B69281C98472B689E73F0E7EB68281C16
S1134DD098472B689E73E7E7AB68281C98472B68B5
S1134DE09E73DEE77C44002008B50020FFF7CCFF6B
S1134DF008BDC04608B50120FFF7C6FF08BDC04680
S1134E0008B50220FFF7C0FF08BDC0460E4B011CC9
S1134E10181C70B584B001AA70C870C2019A8A4285
S1134E2008D05A688A4208D09B6800208B4207D079
S1134E3004B070BD0020C0B2FAE70120C0B2F7E7A9
S1134E400230C0B2F4E7C04648E20000F0B557466D
S1134E504E464546A34C9146221CE0B486B003ABB3
S1134E60051C0E1C9A4683CA83C3039B9E4200D131
S1134E700CE163689E4200D10BE100239846A368CD
S1134E809E4200D108E1211C03220C3101A803F049
S1134E907EFD211C06221031504603F078FD0023CC
S1134EA0AB60EB602B616B612B766B7643468E4A6D
S1134EB09B009D504B462E609B78082B0BD02B718A
S1134EC0338801220520DB070AD506B01CBC9046B6
S1134ED09946A246F0BD42461720D207F5D5EEE723
S1134EE0F37B1730DB06F0D4022133880B40ECD17E
S1134EF04946097C002900D0D1E04B461B7F002B9A
S1134F0000D0D8E041465046784A4900136A415AD5
S1134F100B4313624B469B78082B00D1DAE04B46D7
S1134F206A461B78694613706B46424604339C5CA0
S1134F30201CFEF75FFC201CFEF71EFC4B464A4675
S1134F4098881B89034390799278104318434B4601
S1134F505B78002B02D080231B0118437F22296831
S1134F60CB7B9343FCD14B463080587B431E984106
S1134F704B469B7B8000002B01D0012318437F22EA
S1134F802968CB7B9343FCD1FF333371002805D0D0
S1134F907F222968CB7B9343FCD170714B46987A6E
S1134FA0DB7A002B01D0102318434B461B7B002BCC
S1134FB001D0202318437F222968CB7B9343FCD163
S1134FC07F21B0712A68D37B8B43FCD12B797F215D
S1134FD0042B07D07F21082B40D07F21002B25D024
S1134FE0172072E7D37B8B43FCD14A462833D35C2A
S1134FF07F2233742968CB7B9343FCD14A462933FF
S1135000D35C7F2233752968CB7B9343FCD14A461A
S11350102A33D35C7F2233762968CB7B9343FCD13C
S11350204A462B33D35C002073764EE7D37B8B4305
S1135030FCD14B467F221B8D33822968CB7B934363
S1135040FCD14B467F225B8D33832968CB7B934312
S1135050FCD14B469B8D0020738336E7D37B8B4377
S1135060FCD14B467F229B6A33612968CB7B9343F7
S1135070FCD14B467F22DB6AB3612968CB7B934327
S1135080FCD14B461B6B0020F3611EE700239846BE
S1135090F9E601239846F6E602239846F3E602A9C8
S11350A0CB704B461B7E8A700B704B46187D4A7042
S11350B0FEF796FA21E70123002202A98B704B70B8
S11350C04B46CA704A461B6A526AD8B20A70FEF747
S11350D087FA17E7414601314900136A415A0B43E5
S11350E013621CE748E200007C44002000040040F6
S11350F07F210268D37B8B43FCD10379042B0AD034
S1135100082B06D00020002B00D07047108A80B2F4
S1135110FBE71069F9E7107CC0B2F6E730B57F25EC
S11351200468E37BAB43FCD10379042B16D0082B32
S11351300CD01720002B00D030BD17200129FBD83C
S11351400C3192B249000A530020F5E717200129D7
S1135150F2D8063189000A510020EDE71720012911
S1135160EAD8D2B261180A760020E5E738B50368B8
S1135170051CDB6898476B685B680DE01C682B684E
S11351805B689847241A002C0CDC6A6851688B68A9
S113519053601268002A0CD1002BEFD12B689B6856
S11351A0984738BD6A682B6852681B69106898472D
S11351B0F7E748689047DEE708B5031C081C191C8C
S11351C003F036F808BD08B503F0CCFB08BD0000B9
S11351D0002243088B4274D303098B425FD3030A32
S11351E08B4244D3030B8B4228D3030C8B420DD345
S11351F0FF22090212BA030C8B4202D312120902D3
S113520065D0030B8B4219D300E0090AC30B8B4210
S113521001D3CB03C01A5241830B8B4201D38B03BE
S1135220C01A5241430B8B4201D34B03C01A524163
S1135230030B8B4201D30B03C01A5241C30A8B42A6
S113524001D3CB02C01A5241830A8B4201D38B0291
S1135250C01A5241430A8B4201D34B02C01A524135
S1135260030A8B4201D30B02C01A5241CDD2C309A7
S11352708B4201D3CB01C01A524183098B4201D323
S11352808B01C01A524143098B4201D34B01C01A0E
S1135290524103098B4201D30B01C01A5241C30886
S11352A08B4201D3CB00C01A524183088B4201D3F5
S11352B08B00C01A524143088B4201D34B00C01AE1
S11352C05241411A00D20146524110467047FFE74D
S11352D001B5002000F0FCF802BDC0460029F7D05B
S11352E003B5FFF775FF0EBC4243891A1847C04641
S11352F003460B437FD4002243088B4274D3030933
S11353008B425FD3030A8B4244D3030B8B4228D3D3
S1135310030C8B420DD3FF22090212BA030C8B42F9
S113532002D31212090265D0030B8B4219D300E099
S1135330090AC30B8B4201D3CB03C01A5241830B1E
S11353408B4201D38B03C01A5241430B8B4201D3CE
S11353504B03C01A5241030B8B4201D30B03C01AF7
S11353605241C30A8B4201D3CB02C01A5241830A71
S11353708B4201D38B02C01A5241430A8B4201D3A0
S11353804B02C01A5241030A8B4201D30B02C01ACA
S11353905241CDD2C3098B4201D3CB01C01A524131
S11353A083098B4201D38B01C01A524143098B42BA
S11353B001D34B01C01A524103098B4201D30B01A3
S11353C0C01A5241C3088B4201D3CB00C01A5241C8
S11353D083088B4201D38B00C01A524143088B428D
S11353E001D34B00C01A5241411A00D20146524126
S11353F0104670475DE0CA0F00D04942031000D345
S11354004042534000229C4603098B422DD3030A99
S11354108B4212D3FC22890112BA030A8B420CD3A9
S1135420890192118B4208D3890192118B4204D3D2
S113543089013AD0921100E08909C3098B4201D352
S1135440CB01C01A524183098B4201D38B01C01A8C
S1135450524143098B4201D34B01C01A5241030903
S11354608B4201D30B01C01A5241C3088B4201D3B2
S1135470CB00C01A524183088B4201D38B00C01A5F
S11354805241D9D243088B4201D34B00C01A524136
S1135490411A00D20146634652415B10104601D3C3
S11354A04042002B00D54942704763465B1000D34D
S11354B0404201B5002000F00BF802BD0029F8D0ED
S11354C003B5FFF715FF0EBC4243891A1847C046BF
S11354D07047C0468446101C62468C46191C6346BD
S11354E000E0C0461FB501F083FE002801D400216E
S11354F0C8421FBD10B501F0C7FD4042013010BDC8
S113550010B501F075FE002801DB002010BD01205C
S113551010BDC04610B501F06BFE002801DD00206F
S113552010BD012010BDC04610B501F0F1FD0028EA
S113553001DC002010BD012010BDC04610B501F0F3
S1135540E7FD002801DA002010BD012010BDC0468F
S11355508446081C6146FFE71FB500F0A3FB002842
S113556001D40021C8421FBD10B500F027FB404202
S1135570013010BD10B500F095FB002801DB0020C0
S113558010BD012010BDC04610B500F08BFB0028F3
S113559001DD002010BD012010BDC04610B500F093
S11355A037FB002801DC002010BD012010BDC046DF
S11355B010B500F02DFB002801DA002010BD0120F9
S11355C010BDC046F0B54F46464605042D0C2C1CB4
S11355D0C0B41704160C3F0C9946030C7C43754366
S11355E05F4373437D19260CAD199C46AF4203D922
S11355F080235B029846C4444B46514343432404EE
S11356002E0C240C2D0466442C1959188919201CBD
S11356100CBC90469946F0BD38B500220C4B041CD6
S11356200D1CFFF78BFF002804D1201C291C02F05D
S113563059FC38BD064B0022201C291C02F0D8F866
S113564002F050FC80231B069C466044F1E7C046F0
S11356500000E041F8B54A00430244004E02C50F81
S1135660240E281C9B09120EC90FB7098D4240D085
S1135670A01A002800DC84E0002A1CD1002F5CD191
S11356805A0704D00F221A40042A00D0043380227F
S1135690D2041A40281C002A24D00134FF2C00D143
S11356A07BE09B015B0AE4B25B02E4055B0A2343F3
S11356B0C0071843F8BDFF2CE2D08022D204174360
S11356C001261B2808DC391C20223E1CC140101A6C
S11356D08640771EBE410E439B1B5A0133D4281CBF
S11356E05A07CFD1DB08FF2C1ED05B025B0AE4B261
S11356F0DAE7A11A002957DD002A3AD0FF2CBFD0DF
S11357008022D204174301261B2972DD9B195A01FA
S1135710E5D50134FF2C00D187E001218A4A1940E4
S113572013405B080B43ABE7002B36D08022D20337
S113573013435B025B0AFF24B6E7013800283FD11C
S1135740DB1B5A01CBD59B019E09301C02F052FD94
S113575005388640844223DC001B1F24321C431C72
S1135760201ADA408640131C741EA64100243343D9
S113577086E7002F00D183E70139002950D1DB19D6
S1135780C5E7002820D1621CD2B2012A5EDDDE1BEF
S1135790720128D5FE1A0D1CD7E7FF24002383E7E6
S11357A0694B241A33406BE7002958D1621CD1B2EB
S11357B001293CDDFF2A37D0FB185B08141C5FE786
S11357C0FF2C00D07CE75BE7002C1ED0FF2A23D0FF
S11357D08024E404404223431B285BDD0123FB1A9D
S11357E0141C0D1CADE7002EAFD1002300200024B3
S11357F078E73A1CCA40944620223E1C511A8E4037
S11358006246771EBE41164380E7002B3ED0C0435C
S11358100028E4D0FF2ADFD13B1CFF240D1C2FE716
S1135820FF2C00D06FE72BE7FF2400235AE7002C5E
S11358305AD1002B7FD0002F00D121E7DB195A0168
S113584000D44CE7404A0134134019E7002C15D129
S1135850002B2FD1002F5DD03B1C0D1C10E7002C1A
S113586021D1002B53D0C943002904D0FF2A4BD0A7
S11358701B2957DD0123DB19141C48E7002B22D117
S1135880002F4AD03B1C0D1CFF24F9E63B1C141CC2
S11358900D1CF5E61D1C2024C540201A8340581E0B
S11358A083412B439BE7FF2A2ED08024E404494202
S11358B02343DDE7002F00D1E2E6DA1B50013CD59B
S11358C0FB1A0D1CDCE6FF24002F00D1D8E6802251
S11358D0DB08D203134204D0FE08164201D1331C64
S11358E00D1CDB00FF24CBE6002B0DD0FF24002F82
S11358F000D1C5E68022DB08D2031342F1D0FE08B2
S11359001642EED1331CECE73B1CFF24B8E63B1CEB
S1135910141CB5E6231C0020E4E6802300209B042D
S1135920FF24DFE61E1C2024CE40611A8B40591E42
S11359308B4133439FE73B1CA2E6131E00D0CEE607
S113594000230020CEE6C046FFFFFFFBF0B556461D
S11359504D465F464446F0B443024500C70F83B04A
S11359608A465C0A2E0EB94641D0FF2E26D08023EB
S11359701B042343DC00002398469B467F3E53468A
S11359805B025D0A53465A00DB0F120E9A4639D069
S1135990FF2A33D080231B042B43DD0000237F3AEE
S11359A05146B21A46467940081C01921E430F2EF6
S11359B000D976E07E4AB6009659B746002C30D11D
S11359C008239846063B9B46D9E780230021DB0346
S11359D0FF245B02E4055B0AC90723430B43181C3D
S11359E003B03CBC90469946A246AB46F0BD002CA1
S11359F028D104239846033B9B46C0E7002D1FD1C2
S1135A00022302E0002D11D10123B21A504646466A
S1135A10784001921E430F2E27D86649B600895953
S1135A208F460C239846093B9B46A8E7281C02F0A6
S1135A30E1FB7622431F52429D40121A0023AFE736
S1135A400323ADE7201C02F0D5FB431F9C407623C3
S1135A505B421E1A002398469B4690E70025D146D8
S1135A609B465B464846022B6FD10121FF2401402F
S1135A700023AEE77E23019A5B429B1A1B2B6DDD4C
S1135A8001214B46194000240023A2E78023DB03B5
S1135A901C4249D18023DB0323435B025B0A391C8C
S1135AA096E763016D01AB4237D389461A20012181
S1135AB05B1B01241E1C49005B00002E01DBAB4272
S1135AC001D35B1B214301380028F3D1581E8341C5
S1135AD00B431D1C019C7F34002CCBDD6B0704D0D1
S1135AE00F232B40042B00D004352B0104D5019A3D
S1135AF0314B8032141C1D40FE2C07DD4B46012126
S1135B00FF241940002364E7251CAAE701214A4623
S1135B10AB015B0AE4B211405BE7019A8946013AA2
S1135B2001921B200021C4E71D4207D023435B02DE
S1135B305B0A391C4CE700256302ABD58023DB03E9
S1135B402B435B025B0A514642E7032B25D0012B12
S1135B50C0D101210024014000233AE7291CD94087
S1135B602B1C019A9E3293405D1EAB410B435A0796
S1135B7004D00F221A40042A00D004335A0105D558
S1135B804B46012101241940002322E701214A4602
S1135B909B015B0A114000241BE7802301214A4634
S1135BA0DB032B435B020A405B0A111C10E7C0466F
S1135BB060E20000A0E20000FFFFFFF7430270B5BF
S1135BC042004C005D0AC30F4802120E460A240E1E
S1135BD0C90FFF2A05D0FF2C08D00120A2420BD008
S1135BE070BD0120002DFBD1FF2CF6D10120002E29
S1135BF0F6D10120A242F3D1B542F1D18B4205D0B6
S1135C00002AEDD1281C431E9841E9E70020E7E76C
S1135C10F0B543024D024A0044005E0A240EC30F4D
S1135C206D0A120EC90FFF2C0DD0FF2A31D0002CA3
S1135C300DD177427741002A23D1002D21D10020B4
S1135C40002F0BD107E0002E28D1FF2A21D0002AF3
S1135C5005D08B4207D0584201231843F0BD002DD4
S1135C60F9D08B42F7D19442F5DC04DBAE42F2D892
S1135C700020AE42F2D25842434101205B42184315
S1135C80ECE7002FE5D04842414101204942084356
S1135C90E4E7002D02D1002CCBD0DAE70220404209
S1135CA0DCE7C0464302F0B542004C005E0AC30F75
S1135CB04802120E450A240EC90FFF2A0FD0FF2CEA
S1135CC01AD0002A10D177427741002C29D0002F16
S1135CD017D0484241410120494208430BE00220C9
S1135CE0002E08D1FF2C07D0002C0AD1002D08D19A
